:100000000C945A000C9477000C9477000C947700B1
:100010000C9477000C9477000C9477000C94770084
:100020000C9477000C9477000C9477000C94770074
:100030000C9477000C9477000C9477000C94770064
:100040000C9477000C9477000C9477000C94770054
:100050000C9477000C9477000C9477000C94770044
:100060000C9477000C9477000C9477000C94770034
:100070000C9477000C9477000C9477000C94770024
:100080000C9477000C9477000C9477000C94770014
:100090000C9477000C9477000C9477000C94770004
:1000A0000C9477000C9477000C9477000C947700F4
:1000B0000C94770011241FBECFEFD8E0DEBFCDBF78
:1000C00011E0A0E0B1E0E8E5F3E002C005900D9298
:1000D000A432B107D9F721E0A4E2B1E001C01D923A
:1000E000AD32B207E1F70E9414010C94AA010C94FE
:1000F0000000EAE7F0E0808187608083ACE7B0E051
:100100008C9180648C9380818068808380818064FE
:1001100080830895ECE7F0E09081907F8F70892BC9
:100120008083EAE7F0E080818064808380917A00B8
:1001300086FDFCCF8091780090917900089510920F
:10014000C50087E68093C40088E18093C10086E003
:100150008093C20008959091C00095FFFCCF8093DA
:10016000C6000895CF93DF93EC0103C00E94AB005B
:10017000219688818111FACFDF91CF91089584B1C2
:10018000806284B98DE08093810010928500109286
:10019000840080912B0190912C01823F21E09207F5
:1001A000A0F482E890E090938900809388000AC0D0
:1001B00095B180E2892785B910928500109284005C
:1001C00082E086BBB19BF4CF15C0833F914090F095
:1001D00085E89EE19093890080938800B19BFECFD3
:1001E00095B180E2892785B910928500109284002C
:1001F00082E086BB80912B0190912C01823F91403F
:1002000091F484E091E09093890080938800B19B01
:10021000FECF95B180E2892785B9109285001092B2
:10022000840082E086BB08950E9479000E949F00AE
:1002300080E091E00E94B2002FE78AE196E0215031
:1002400080409040E1F700C0000084E291E00E940D
:10025000B20084E00E948A0090932C0180932B01CD
:100260008EE091E00E94B2004AE050E064E271E06A
:1002700080912B0190912C010E946A0184E291E00F
:100280000E94B20087E191E00E94B2008BE191E010
:100290000E94B20085E00E948A0090932A01809318
:1002A00029014AE050E064E271E00E946A0184E2C0
:1002B00091E00E94B2002FEF89E698E12150804042
:1002C0009040E1F700C000008AE00E94AB000E946D
:1002D000BF00BFCF4532510520F4423010F00C94DE
:1002E0007501FB011082CB010895BB274A3031F420
:1002F000992322F4BDE2909581959F4F0C94810142
:10030000BB27FB015527AA27880F991FAA1FA417EF
:1003100010F0A41B83955051B9F7A05DAA3308F0E3
:10032000A95DA193009779F7B111B1931192CB0117
:100330000C949A01DC01FC01672F71917723E1F79E
:10034000329704C07C916D9370836291AE17BF07A2
:08035000C8F30895F894FFCFF3
:10035800436F6E6E656374656421200D0A00582D25
:10036800417869733A2000202C2000592D41786982
:04037800733A2000B4
:00000001FF
