:100000000C945A000C949A000C9464000C946400B4
:100010000C9464000C9464000C9464000C946400D0
:100020000C9464000C9464000C9464000C946400C0
:100030000C9464000C9464000C9464000C946400B0
:100040000C9464000C9464000C9464000C946400A0
:100050000C9464000C9464000C9464000C94640090
:100060000C9464000C9464000C9464000C94640080
:100070000C9464000C9464000C9464000C94640070
:100080000C9464000C9464000C9464000C94640060
:100090000C9464000C9464000C9464000C94640050
:1000A0000C9464000C9464000C9464000C94640040
:1000B0000C94640011241FBECFEFD8E0DEBFCDBF8B
:1000C0000E9466000C94BA000C94000087B117B827
:1000D00088B1886088B987B117B888B1846088B959
:1000E0008AB184708AB98BB184608BB984B1846021
:1000F00084B984B1826084B985B1846085B933994B
:1001000010C085B18B7F85B92FEF88E09DE321502A
:1001100080409040E1F700C0000085B1846085B95F
:10012000EECF4A99ECCF82E08093690081E08DBBED
:100130007894E5CF1F920F920FB60F9211242F9350
:100140008F939F9395B18DEF892785B92FEF89E61E
:1001500098E1215080409040E1F700C0000085B157
:10016000886085B99F918F912F910F900FBE0F904E
:080170001F901895F894FFCFD1
:00000001FF
