:100000000C945A000C9477000C9477000C947700B1
:100010000C9477000C9477000C9477000C94770084
:100020000C9477000C9477000C9477000C94770074
:100030000C9477000C9477000C9477000C94770064
:100040000C9477000C9477000C9477000C94770054
:100050000C9477000C9477000C9477000C94770044
:100060000C9477000C9477000C9477000C94770034
:100070000C9477000C9477000C9477000C94770024
:100080000C9477000C9477000C9477000C94770014
:100090000C9477000C9477000C9477000C94770004
:1000A0000C9477000C9477000C9477000C947700F4
:1000B0000C94770011241FBECFEFD8E0DEBFCDBF78
:1000C00011E0A0E0B1E0E0E1FBE002C005900D929C
:1000D000A03AB107D9F721E0A0EAB1E001C01D9232
:1000E000A83DB207E1F70E9447010C9486050C94E5
:1000F00000001092B90088E48093B800089594EA53
:100100009093BC009091BC009923E4F79091B900C2
:10011000987F983011F0903191F48093BB0084E87F
:100120008093BC008091BC008823E4F78091B900E3
:10013000887F883131F0803431F480E0089581E0A7
:10014000089580E0089581E0089584E98093BC00DB
:100150008091BC0084FDFCCF08958093BB0084E8AF
:100160008093BC008091BC008823E4F78091B900A3
:10017000887F883211F081E0089580E0089584E856
:100180008093BC008091BC008823E4F78091BB0081
:1001900008959093C5008093C40088E08093C100C7
:1001A00086E08093C2000895FC0107C09091C000D2
:1001B00095FFFCCF8093C600319680818111F6CFE8
:1001C000089580ED0E947F0080E00E94AD000E94B3
:1001D000A50081ED0E947F000E94BF001F928F93B7
:1001E00080E091E09F938F931F928EE18F938AEA34
:1001F00091E09F938F930E948E028AEA91E00E9481
:10020000D4000E94A5008DB79EB708960FB6F8944B
:100210009EBF0FBE8DBF089580ED0E947F0086E0D7
:100220000E94AD0081E00E94AD000E94A5000895EB
:10023000CF93DF93C82F80ED0E947F008C2F0E9408
:10024000AD0081ED0E947F000E94BF008093C80135
:1002500080ED0E947F0081E08C0F0E94AD0081ED57
:100260000E947F00C091C801D0E0DC2FCC270E9403
:10027000BF00C82BD093CC01C093CB010E94A50036
:100280008091CB019091CC01DF91CF91089588B1FD
:10029000806388B90E94790087E690E00E94C900D7
:1002A00082E191E00E94D4000E940C010E94E100D2
:1002B0002FEF83EC99E0215080409040E1F700C09F
:1002C00000008DE20E9418019093A1018093A0018B
:1002D0008FE20E9418019093A7018093A60181E309
:1002E0000E9418019093D0018093CF0183E30E9474
:1002F00018019093CA018093C90185E30E941801F7
:100300009093A5018093A40187E30E941801909324
:10031000D2018093D10189E30E9418019093A30137
:100320008093A2018BE30E9418019093A90180930E
:10033000A8018DE30E9418019093CE018093CD0116
:100340008091A1018F938091A0018F9384E291E02D
:100350009F938F931F921EE11F93CAEAD1E0DF9310
:10036000CF930E948E02CE010E94D4008091A701FB
:100370008F938091A6018F9382E391E09F938F9357
:100380001F921F93DF93CF930E948E02CE010E9493
:10039000D4008091D0018F938091CF018F9380E41E
:1003A00091E09F938F931F921F93DF93CF930E94AF
:1003B0008E02CE010E94D40081E291E00E94D4001E
:1003C0002FEF89E698E1215080409040E1F700C08E
:1003D00000008091CA018F938091C9018F938EE4B0
:1003E00091E09F938F931F921F93DF93CF930E946F
:1003F0008E028DB79EB780960FB6F8949EBF0FBE43
:100400008DBFCE010E94D4008091A5018F93809171
:10041000A4018F938BE591E09F938F931F921F937D
:10042000DF93CF930E948E02CE010E94D400809170
:10043000D2018F938091D1018F9388E691E09F93B1
:100440008F931F921F93DF93CF930E948E02CE0152
:100450000E94D40081E291E00E94D4002FEF89E64F
:1004600098E1215080409040E1F700C00000809169
:10047000A3018F938091A2018F9385E791E09F93D1
:100480008F931F921F93DF93CF930E948E02CE0112
:100490000E94D4008091A9018F938091A8018F932D
:1004A00083E891E09F938F931F921F93DF93CF93E5
:1004B0000E948E028DB79EB780960FB6F8949EBFAD
:1004C0000FBE8DBFCE010E94D4008091CE018F93CC
:1004D0008091CD018F9381E991E09F938F931F923B
:1004E0001F93DF93CF930E948E02CE010E94D4000F
:1004F00081E291E00E94D4008FEF93ED20E38150E0
:1005000090402040E1F700C000008DB79EB70896EC
:100510000FB6F8949EBF0FBE8DBFD3CEAEE0B0E055
:10052000E4E9F2E00C945D050D891E898F89988DB0
:1005300026E02C831A83098397FF02C080E090E8AD
:1005400001979E838D83AE01455E5F4F698D7A8DE5
:10055000CE0101960E94BE024D815E8157FD0AC008
:100560002F813885421753070CF49A01F801E20FE6
:10057000F31F10822E96E4E00C947905ABE0B0E016
:10058000E4ECF2E00C944F056C017B018A01FC0164
:1005900017821682838181FFCCC1CE0101963C0176
:1005A000F6019381F70193FD859193FF81917F017E
:1005B000882309F4BAC1853239F493FD859193FFFC
:1005C00081917F01853229F4B60190E00E94B50443
:1005D000E7CF912C212C312CFFE1F315D8F08B3291
:1005E00079F038F4803279F08332A1F4232D206140
:1005F0001DC08D3261F0803369F4232D216016C057
:10060000832D8260382EE32DE4603E2E2AC0F32D28
:10061000F8601DC037FC2DC020ED280F2A3040F0B7
:100620008E32B9F436FC81C1232D2064322E19C0DC
:1006300036FE06C08AE0989E200D1124922E11C02D
:10064000EAE02E9E200D1124222EF32DF0623F2E83
:1006500008C08C3621F4832D8068382E02C088367D
:1006600041F4F70193FD859193FF81917F01811101
:10067000B3CF982F9F7D9554933028F40C5F1F4F74
:100680009FE399830DC0833631F0833771F0833552
:1006900009F059C021C0F801808189830E5F1F4F86
:1006A00088248394912C530113C02801F2E04F0E4B
:1006B000511CF801A080B18036FE03C0692D70E0A6
:1006C00002C06FEF7FEFC5010E94AA044C018201B6
:1006D000F32DFF773F2E16C0280122E0420E511C59
:1006E000F801A080B18036FE03C0692D70E002C021
:1006F0006FEF7FEFC5010E949F044C01F32DF0685E
:100700003F2E820133FC1BC0822D90E08816990693
:10071000B0F4B60180E290E00E94B5042A94F4CFD0
:10072000F50137FC859137FE81915F01B60190E0BC
:100730000E94B50421102A9421E0821A91088114A4
:10074000910471F7E8C0843611F0893641F5F8015B
:1007500037FE07C060817181828193810C5F1F4FDA
:1007600008C060817181072E000C880B990B0E5F09
:100770001F4FF32DFF763F2E97FF09C09095809570
:10078000709561957F4F8F4F9F4FF0683F2E2AE005
:1007900030E0A3010E94F104882E861845C08537F9
:1007A00031F4232D2F7EB22E2AE030E025C0932D88
:1007B000997FB92E8F36C1F018F4883579F0B5C01D
:1007C000803719F0883721F0B0C0E92FE061BE2EE4
:1007D000B4FE0DC0FB2DF460BF2E09C034FE0AC06C
:1007E000292F2660B22E06C028E030E005C020E1A7
:1007F00030E002C020E132E0F801B7FE07C06081BE
:100800007181828193810C5F1F4F06C0608171816D
:1008100080E090E00E5F1F4FA3010E94F104882E3C
:100820008618FB2DFF773F2E36FE0DC0232D2E7F21
:10083000A22E891458F434FE0BC032FC09C0832D5B
:100840008E7EA82E05C0B82CA32C03C0B82C01C0E6
:10085000B92CA4FE0FC0FE01E80DF11D808180338C
:1008600021F49A2D997EA92E09C0A2FE06C0B39448
:10087000B39404C08A2D867809F0B394A3FC11C008
:10088000A0FE06C0B21488F4280C922C9B180EC04F
:10089000B21460F4B60180E290E00E94B504B39413
:1008A000F7CFB21418F42B1802C0982C212CA4FEF8
:1008B00010C0B60180E390E00E94B504A2FE17C00C
:1008C000A1FC03C088E790E002C088E590E0B60193
:1008D0000CC08A2D867859F0A1FE02C08BE201C0BF
:1008E00080E2A7FC8DE2B60190E00E94B504891475
:1008F00038F4B60180E390E00E94B5049A94F7CFF3
:100900008A94F301E80DF11D8081B60190E00E9408
:10091000B5048110F5CF222009F442CEB60180E261
:1009200090E00E94B5042A94F6CFF6018681978163
:1009300002C08FEF9FEF2B96E2E10C946B05FC0158
:100940000590615070400110D8F7809590958E0FFA
:100950009F1F0895FC016150704001900110D8F76D
:10096000809590958E0F9F1F08950F931F93CF939F
:10097000DF93FB01238121FD03C08FEF9FEF2CC08C
:1009800022FF16C0468157812481358142175307C3
:1009900044F4A081B1819D012F5F3F4F31832083BB
:1009A0008C93268137812F5F3F4F3783268314C076
:1009B0008B01EC01FB010084F185E02D0995892B69
:1009C000E1F6D80116968D919C911797019617968E
:1009D0009C938E931697CE01DF91CF911F910F912B
:1009E0000895FA01AA27283051F1203181F1E894C5
:1009F0006F936E7F6E5F7F4F8F4F9F4FAF4FB1E012
:100A00003ED0B4E03CD0670F781F891F9A1FA11D0C
:100A1000680F791F8A1F911DA11D6A0F711D811D0D
:100A2000911DA11D20D009F468943F912AE0269FD2
:100A300011243019305D3193DEF6CF010895462F31
:100A40004770405D4193B3E00FD0C9F7F6CF462F12
:100A50004F70405D4A3318F0495D31FD405241937B
:100A600002D0A9F7EACFB4E0A69597958795779538
:100A70006795BA95C9F700976105710508959B01BF
:100A8000AC010A2E06945795479537952795BA9548
:100A9000C9F7620F731F841F951FA01D08952F9221
:100AA0003F924F925F926F927F928F929F92AF92FE
:100AB000BF92CF92DF92EF92FF920F931F93CF934B
:100AC000DF93CDB7DEB7CA1BDB0B0FB6F894DEBFE2
:100AD0000FBECDBF09942A88398848885F846E8408
:100AE0007D848C849B84AA84B984C884DF80EE8052
:100AF000FD800C811B81AA81B981CE0FD11D0FB65B
:100B0000F894DEBF0FBECDBFED010895F894FFCF7E
:100B10004445564943452049443A20253032780D12
:100B20000A005541525420436F6E6E6563746564CC
:100B3000210D0A00414343454C20583A2025640DBD
:100B40000A00414343454C20593A2025640D0A00D0
:100B5000414343454C205A3A2025640D0A00475929
:100B6000524F20583A2025640D0A004759524F2011
:100B7000593A2025640D0A004759524F205A3A200D
:100B800025640D0A004D41474E4520583A20256402
:100B90000D0A004D41474E4520593A2025640D0A63
:100BA000004D41474E45205A3A2025640D0A000069
:00000001FF
